:020000040800F2
:1000000000500020214B00084D1B0008531B000826
:10001000591B00085F1B0008651B0008000000005A
:100020000000000000000000000000006B1B000842
:10003000771B000800000000831B00088F1B0008CE
:10004000694B0008694B0008694B0008694B0008C0
:10005000694B0008694B0008694B0008694B0008B0
:10006000694B0008694B0008694B0008694B0008A0
:10007000694B0008694B0008694B0008694B000890
:10008000694B0008694B0008694B0008694B000880
:10009000694B0008694B0008694B0008694B000870
:1000A000694B0008694B0008694B0008694B000860
:1000B000694B0008694B0008694B0008694B000850
:1000C000694B0008694B0008694B0008694B000840
:1000D000694B0008694B0008694B0008694B000830
:1000E000694B0008694B0008694B000800000000DC
:1000F0000000000000000000000000000000000000
:0C01000000000000000000005FF808F1A3
:1001100010B5054C237833B9044B13B10448AFF341
:1001200000800123237010BDF001002000000000BA
:100130008C71000808B5034B1BB103490348AFF3AA
:10014000008008BD00000000F40100208C71000850
:10015000034613F8012B002AFBD1181A0138704707
:1001600081F0004102E000BF83F0004330B54FEA68
:1001700041044FEA430594EA050F08BF90EA020FD5
:100180001FBF54EA000C55EA020C7FEA645C7FEA68
:10019000655C00F0E2804FEA5454D4EB5555B8BF8B
:1001A0006D420CDD2C4480EA020281EA030382EAFC
:1001B000000083EA010180EA020281EA0303362D8E
:1001C00088BF30BD11F0004F4FEA01314FF4801C61
:1001D0004CEA113102D0404261EB410113F0004F73
:1001E0004FEA03334CEA133302D0524263EB43032A
:1001F00094EA050F00F0A780A4F10104D5F1200EC8
:100200000DDB02FA0EFC22FA05F2801841F1000122
:1002100003FA0EF2801843FA05F359410EE0A5F1F6
:1002200020050EF1200E012A03FA0EFC28BF4CF027
:10023000020C43FA05F3C01851EBE37101F00045DD
:1002400007D54FF0000EDCF1000C7EEB00006EEBEA
:100250000101B1F5801F1BD3B1F5001F0CD3490874
:100260005FEA30004FEA3C0C04F101044FEA4452CB
:1002700012F5800F80F09A80BCF1004F08BF5FEA52
:10028000500C50F1000041EB045141EA050130BD32
:100290005FEA4C0C404141EB010111F4801FA4F1D5
:1002A0000104E9D191F0000F04BF01460020B1FA2A
:1002B00081F308BF2033A3F10B03B3F120020CDA62
:1002C0000C3208DD02F1140CC2F10C0201FA0CF040
:1002D00021FA02F10CE002F11402D8BFC2F1200CA5
:1002E00001FA02F120FA0CFCDCBF41EA0C0190405B
:1002F000E41AA2BF01EB0451294330BD6FEA0404A4
:100300001F3C1CDA0C340EDC04F11404C4F120028E
:1003100020FA04F001FA02F340EA030021FA04F3A0
:1003200045EA030130BDC4F10C04C4F1200220FAF7
:1003300002F001FA04F340EA0300294630BD21FA35
:1003400004F0294630BD94F0000F83F4801306BFFB
:1003500081F480110134013D4EE77FEA645C18BFEF
:100360007FEA655C29D094EA050F08BF90EA020F86
:1003700005D054EA000C04BF1946104630BD91EA7E
:10038000030F1EBF0021002030BD5FEA545C05D181
:100390004000494128BF41F0004130BD14F58004C0
:1003A0003CBF01F5801130BD01F0004545F0FE4134
:1003B00041F470014FF0000030BD7FEA645C1ABF69
:1003C000194610467FEA655C1CBF0B46024650EAA0
:1003D000013406BF52EA033591EA030F41F40021CC
:1003E00030BD00BF90F0000F04BF0021704730B552
:1003F0004FF4806404F132044FF000054FF0000127
:1004000050E700BF90F0000F04BF0021704730B5E7
:100410004FF4806404F1320410F0004548BF4042BC
:100420004FF000013EE700BF42004FEAE2014FEA11
:1004300031014FEA02701FBF12F07F4393F07F4FEC
:1004400081F06051704792F0000F14BF93F07F4F1E
:10045000704730B54FF4607401F0004521F0004161
:1004600020E700BF50EA010208BF704730B54FF0E7
:1004700000050AE050EA010208BF704730B511F0EC
:10048000004502D5404261EB41014FF4806404F124
:1004900032045FEA915C3FF4DCAE4FF003025FEAA6
:1004A000DC0C18BF03325FEADC0C18BF033202EB2E
:1004B000DC02C2F1200300FA03FC20FA02F001FA88
:1004C00003FE40EA0E0021FA02F11444C1E600BF27
:1004D00070B54FF0FF0C4CF4E06C1CEA11541DBFDA
:1004E0001CEA135594EA0C0F95EA0C0F00F0DEF8A5
:1004F0002C4481EA030621EA4C5123EA4C5350EA8A
:10050000013518BF52EA033541F4801143F48013DA
:1005100038D0A0FB02CE4FF00005E1FB02E506F06B
:100520000042E0FB03E54FF00006E1FB03569CF0C0
:10053000000F18BF4EF0010EA4F1FF04B6F5007FC6
:1005400064F5407404D25FEA4E0E6D4146EB060638
:1005500042EAC62141EA55514FEAC52040EA5E50C1
:100560004FEACE2EB4F1FD0C88BFBCF5E06F1ED86B
:10057000BEF1004F08BF5FEA500E50F1000041EBA2
:10058000045170BD06F0004646EA010140EA02004F
:1005900081EA0301B4EB5C04C2BFD4EB0C0541EA71
:1005A000045170BD41F480114FF0000E013C00F386
:1005B000AB8014F1360FDEBF002001F0004170BDAA
:1005C000C4F10004203C35DA0C341BDC04F11404C3
:1005D000C4F1200500FA05F320FA04F001FA05F24F
:1005E00040EA020001F0004221F0004110EBD3701C
:1005F00021FA04F642EB06015EEA430E08BF20EA48
:10060000D37070BDC4F10C04C4F1200500FA04F3EA
:1006100020FA05F001FA04F240EA020001F000417C
:1006200010EBD37041F100015EEA430E08BF20EAEF
:10063000D37070BDC4F1200500FA05F24EEA020E37
:1006400020FA04F301FA05F243EA020321FA04F066
:1006500001F0004121FA04F220EA020000EBD3701D
:100660005EEA430E08BF20EAD37070BD94F0000F1D
:100670000FD101F00046400041EB010111F4801F51
:1006800008BF013CF7D041EA060195F0000F18BF02
:10069000704703F00046520043EB030313F4801F3E
:1006A00008BF013DF7D043EA0603704794EA0C0FF8
:1006B0000CEA135518BF95EA0C0F0CD050EA41060E
:1006C00018BF52EA4306D1D181EA030101F000418B
:1006D0004FF0000070BD50EA410606BF10461946B3
:1006E00052EA430619D094EA0C0F02D150EA0136BF
:1006F00013D195EA0C0F05D152EA03361CBF104600
:1007000019460AD181EA030101F0004141F0FE419E
:1007100041F470014FF0000070BD41F0FE4141F422
:10072000780170BD70B54FF0FF0C4CF4E06C1CEA22
:1007300011541DBF1CEA135594EA0C0F95EA0C0FD7
:1007400000F0A7F8A4EB050481EA030E52EA033592
:100750004FEA013100F088804FEA03334FF08055B3
:1007600045EA131343EA12634FEA022245EA1115E0
:1007700045EA10654FEA00260EF000419D4208BF91
:10078000964244F1FD0404F5407402D25B084FEA3E
:100790003202B61A65EB03055B084FEA32024FF4EA
:1007A00080104FF4002CB6EB020E75EB030E22BF47
:1007B000B61A754640EA0C005B084FEA3202B6EB07
:1007C000020E75EB030E22BFB61A754640EA5C00B6
:1007D0005B084FEA3202B6EB020E75EB030E22BF46
:1007E000B61A754640EA9C005B084FEA3202B6EB47
:1007F000020E75EB030E22BFB61A754640EADC0006
:1008000055EA060E18D04FEA051545EA16754FEA67
:1008100006164FEAC30343EA52734FEAC2025FEA85
:100820001C1CC0D111F4801F0BD141EA00014FF014
:1008300000004FF0004CB6E711F4801F04BF0143E5
:100840000020B4F1FD0C88BFBCF5E06F3FF6AFAE01
:10085000B5EB030C04BFB6EB020C5FEA500C50F191
:10086000000041EB045170BD0EF0004E4EEA113114
:1008700014EB5C04C2BFD4EB0C0541EA045170BD1B
:1008800041F480114FF0000E013C90E645EA060E5F
:100890008DE60CEA135594EA0C0F08BF95EA0C0F8D
:1008A0003FF43BAF94EA0C0F0AD150EA01347FF4D5
:1008B00034AF95EA0C0F7FF425AF104619462CE7AC
:1008C00095EA0C0F06D152EA03353FF4FDAE10460F
:1008D000194622E750EA410618BF52EA43067FF460
:1008E000C5AE50EA41047FF40DAF52EA43057FF4F0
:1008F000EBAE12E74FF0FF3C06E000BF4FF0010CFB
:1009000002E000BF4FF0010C4DF804CD4FEA410C5E
:100910007FEA6C5C4FEA430C18BF7FEA6C5C1BD02B
:1009200001B050EA410C0CBF52EA430C91EA030FAC
:1009300002BF90EA020F0020704710F1000F91EA09
:10094000030F58BF994208BF90422CBFD8176FEAD7
:10095000E37040F0010070474FEA410C7FEA6C5CA5
:1009600002D150EA013C07D14FEA430C7FEA6C5CAC
:10097000D6D152EA033CD3D05DF8040B704700BFD8
:100980008446104662468C461946634600E000BF26
:1009900001B5FFF7B7FF002848BF10F1000F01BDF8
:1009A0004DF808EDFFF7F4FF0CBF012000205DF8C3
:1009B00008FB00BF4DF808EDFFF7EAFF34BF012048
:1009C00000205DF808FB00BF4DF808EDFFF7E0FFE1
:1009D00094BF012000205DF808FB00BF4DF808ED32
:1009E000FFF7CEFF94BF012000205DF808FB00BF99
:1009F0004DF808EDFFF7C4FF34BF012000205DF87B
:100A000008FB00BF4FEA410C7FEA6C5C02D150EA60
:100A1000013C0AD14FEA430C7FEA6C5C02D152EAF6
:100A2000033C02D14FF0000070474FF001007047C7
:100A30004FEA410212F5001215D211D56FF4787306
:100A4000B3EB625212D94FEAC12343F0004343EAA9
:100A5000505311F0004F23FA02F018BF4042704784
:100A60004FF00000704750EA013005D111F000400E
:100A700008BF6FF0004070474FF00000704700BFA4
:100A80004FEA4102B2F1E04324BFB3F5001CDCF1B0
:100A9000FE5C0DD901F0004C4FEAC0024CEA5070E8
:100AA000B2F1004F40EB830008BF20F00100704717
:100AB00011F0804F21D113F13872BCBF01F000401A
:100AC000704741F480114FEA5252C2F11802C2F14C
:100AD000200C10FA0CF320FA02F018BF40F00100CD
:100AE0004FEAC1234FEAD32303FA0CFC40EA0C007F
:100AF00023FA02F34FEA4303CCE77FEA625307D1BC
:100B000050EA01331EBF4FF0FE4040F440007047F2
:100B100001F0004040F0FE4040F40000704700BF8C
:100B200080F0004002E000BF81F0004142001FBFA2
:100B30005FEA410392EA030F7FEA226C7FEA236CAB
:100B40006AD04FEA1262D2EB1363C1BFD2184140A0
:100B500048404140B8BF5B42192B88BF704710F036
:100B6000004F40F4000020F07F4018BF404211F0D9
:100B7000004F41F4000121F07F4118BF494292EA41
:100B8000030F3FD0A2F1010241FA03FC10EB0C006D
:100B9000C3F1200301FA03F100F0004302D54942FA
:100BA00060EB4000B0F5000F13D3B0F1807F06D3A7
:100BB00040084FEA310102F10102FE2A51D2B1F19F
:100BC000004F40EBC25008BF20F0010040EA030094
:100BD0007047490040EB000010F4000FA2F1010241
:100BE000EDD1B0FA80FCACF1080CB2EB0C0200FACB
:100BF0000CF0AABF00EBC25052421843BCBFD04019
:100C00001843704792F0000F81F4000106BF80F492
:100C100000000132013BB5E74FEA41037FEA226C55
:100C200018BF7FEA236C21D092EA030F04D092F020
:100C3000000F08BF0846704790EA010F1CBF002054
:100C4000704712F07F4F04D1400028BF40F00040B1
:100C5000704712F100723CBF00F50000704700F0D1
:100C6000004343F0FE4040F4000070477FEA2262F8
:100C700016BF08467FEA23630146420206BF5FEAC9
:100C8000412390EA010F40F4800070474FF00003C9
:100C900004E000BF10F0004348BF40425FEA000C90
:100CA00008BF704743F0964301464FF000001CE038
:100CB00050EA010208BF70474FF000030AE000BF8E
:100CC00050EA010208BF704711F0004302D54042CC
:100CD00061EB41015FEA010C02BF8446014600203E
:100CE00043F0B64308BFA3F18053A3F50003BCFA59
:100CF0008CF2083AA3EBC25310DB01FA02FC634406
:100D000000FA02FCC2F12002BCF1004F20FA02F20C
:100D100043EB020008BF20F00100704702F12002FF
:100D200001FA02FCC2F1200250EA4C0021FA02F260
:100D300043EB020008BF20EADC7070474FF0FF0C65
:100D40001CEAD0521EBF1CEAD15392EA0C0F93EA60
:100D50000C0F6FD01A4480EA010C400218BF5FEA02
:100D600041211ED04FF0006343EA501043EA511175
:100D7000A0FB01310CF00040B1F5000F3EBF49006F
:100D800041EAD3715B0040EA010062F17F02FD2A73
:100D90001DD8B3F1004F40EBC25008BF20F0010056
:100DA000704790F0000F0CF0004C08BF49024CEA6D
:100DB000502040EA51207F3AC2BFD2F1FF0340EAFF
:100DC000C250704740F400004FF00003013A5DDC70
:100DD00012F1190FDCBF00F000407047C2F10002B1
:100DE000410021FA02F1C2F1200200FA02FC5FEA9E
:100DF000310040F1000053EA4C0308BF20EADC70E8
:100E0000704792F0000F00F0004C02BF400010F459
:100E1000000F013AF9D040EA0C0093F0000F01F006
:100E2000004C02BF490011F4000F013BF9D041EA28
:100E30000C018FE70CEAD15392EA0C0F18BF93EA2A
:100E40000C0F0AD030F0004C18BF31F0004CD8D154
:100E500080EA010000F00040704790F0000F17BFDB
:100E600090F0004F084691F0000F91F0004F14D021
:100E700092EA0C0F01D142020FD193EA0C0F03D179
:100E80004B0218BF084608D180EA010000F000407C
:100E900040F0FE4040F40000704740F0FE4040F457
:100EA000400070474FF0FF0C1CEAD0521EBF1CEAF6
:100EB000D15392EA0C0F93EA0C0F69D0A2EB030214
:100EC00080EA010C49024FEA402037D04FF08053AE
:100ED00043EA111143EA10130CF000408B4238BF73
:100EE0005B0042F17D024FF4000C8B4224BF5B1A81
:100EF00040EA0C00B3EB510F24BFA3EB510340EACF
:100F00005C00B3EB910F24BFA3EB910340EA9C007C
:100F1000B3EBD10F24BFA3EBD10340EADC001B01EC
:100F200018BF5FEA1C1CE0D1FD2A3FF650AF8B4290
:100F300040EBC25008BF20F0010070470CF0004C9D
:100F40004CEA50207F32C2BFD2F1FF0340EAC250C8
:100F5000704740F400004FF00003013A37E792F089
:100F6000000F00F0004C02BF400010F4000F013AE7
:100F7000F9D040EA0C0093F0000F01F0004C02BFE2
:100F8000490011F4000F013BF9D041EA0C0195E74B
:100F90000CEAD15392EA0C0F08D142027FF47DAFE4
:100FA00093EA0C0F7FF470AF084676E793EA0C0FD4
:100FB00004D14B023FF44CAF08466EE730F0004CD2
:100FC00018BF31F0004CCAD130F000427FF45CAF62
:100FD00031F000437FF43CAF5FE700BF4FEA4002CF
:100FE000B2F1FE4F0FD34FF09E03B3EB12620DD957
:100FF0004FEA002343F0004310F0004F23FA02F0C1
:1010000018BF404270474FF00000704712F1610F67
:1010100001D1420205D110F0004008BF6FF000403E
:1010200070474FF000007047B0B590B002AF00F0CD
:10103000E7FD00F00BFB00F049FC00F04DFB00F079
:101040001BFC00F077FB64230222D021864801F0CC
:1010500027FD0346002B15D13B46844A1C46134608
:101060000FCB07C4238002341B0C23703B46184669
:10107000FFF76EF803469AB2394632237C4803F0F4
:10108000E5FB11E03B467B4A1C4613460FCB07C4E9
:1010900023803B461846FFF75BF803469AB2394671
:1010A0003223734803F0D2FB642300930223724A75
:1010B000D0216D4801F09CF96423009302236F4A0C
:1010C000D021694801F094F96423009302236C4A0B
:1010D000D021654801F08CF900216A4802F0FEFD3C
:1010E000684B1B6840F6B8325A634FF4FA6000F060
:1010F000E9FD642300930123634AD0215A4801F09B
:1011000077F9642300930823604AD021564801F000
:101110006DFA00F0CDFD02465D4B1A605B4B1B780B
:101120001B021AB2594B5B781BB213431AB2594BCC
:101130001A80564B9B781B021AB2544BDB781BB2B9
:1011400013431AB2544B1A80504B1B791B021AB22C
:101150004E4B5B791BB213431AB2504B1A804B4B68
:101160009B791B02494AD27913431846FFF792FD37
:1011700002464B4B1A60474BB3F900301846FFF755
:1011800089FD03464FF08D411846FFF78BFE03465D
:101190001A46444B1A60404BB3F900301846FFF72B
:1011A00079FD03464FF08D411846FFF77BFE03465D
:1011B0001A463D4B1A60394BB3F900301846FFF719
:1011C00069FD03464FF08D411846FFF76BFE03465D
:1011D0001A46364B1A60334B1B681846FFF724F942
:1011E00004460D46314B1B681846FFF71DF90246B1
:1011F0000B462046294605F055FD19A3D3E90023E7
:10120000FFF766F903460C4618462146FFF738FCFF
:101210000246274B1A60244B1B681846FFF704F957
:1012200004460D46214B1B681846FFF7FDF80246A1
:101230000B462046294605F035FD09A3D3E90023D6
:10124000FFF746F903460C4618462146FFF718FCFF
:101250000246184B1A6000237B6328E1AFF300803D
:1012600012143FC6DCA54C4060020020A8710008A3
:1012700018020020B87100080800002000000020BB
:1012800004000020E00200200C00002038030020B1
:10129000CC020020C00200204C0300202C030020C0
:1012A000BC02002028030020D40200205C030020A0
:1012B000580300206003002000F0FAFC02466A4B4D
:1012C0001B68D31A1846FFF78DF84FF00002674BE2
:1012D000FFF728FA03460C4618462146FFF7D0FBD5
:1012E0000246634B1A60642300930123614AD021B4
:1012F000614801F07DF86423009306235F4AD02102
:101300005D4801F073F95D4B1B7A1B021AB25B4B0F
:101310005B7A1BB213431AB2594B1A80574B9B7A14
:101320001B021AB2554BDB7A1BB213431AB2554B50
:101330001A80524B1B7B1B021AB2504B5B7B1BB2B9
:1013400013431AB2504B1A804D4BB3F90030184674
:10135000FFF7A0FC03464D491846FFF7A3FD0346DF
:101360001A464B4B1A60474BB3F900301846FFF74B
:1013700091FC034645491846FFF794FD03461A467B
:10138000444B1A60404BB3F900301846FFF782FC1B
:1013900003463E491846FFF785FD03461A463E4B75
:1013A0001A603C4B1A68324B1B6819461046FFF70F
:1013B000C5FC03461A46394B1B6819461046FFF711
:1013C000B5FB03461A46354B1A60314B1A68284B59
:1013D0001B6819461046FFF7B1FC03461A46304B0E
:1013E0001B6819461046FFF7A1FB03461A462C4B13
:1013F0001A607B6B632B57D1284B1B682949184611
:10140000FFF750FD03461846FFF70EF814A3D3E983
:101410000023FFF75DF803460C4618462146FFF708
:101420002FFB02461D4B1A601D4B1B681D491846B9
:10143000FFF738FD03461846FEF7F6FF08A3D3E989
:101440000023FFF745F803460C4618462146FFF7F0
:1014500017FB0246124B1A602DE000BFAFF300806D
:1014600012143FC6DCA54C40CC02002000408F4047
:1014700050030020100000206002002038030020EC
:10148000C80200202E030020540300200000034364
:1014900030030020B4020020C40200205C020020BF
:1014A000B80200200000C8427B6B01337B637B6B7A
:1014B000092B7FF701AF584B1B681846FEF7B4FFA6
:1014C00051A3D3E90023FFF703F803460C46254652
:1014D0001C46524B1B681846FEF7A6FF4CA3D3E9E7
:1014E0000023FEF7F5FF02460B4620462946FEF78D
:1014F0003DFE03460C4618462146FFF7C1FA024658
:10150000474B1A60474B1B681846FEF78DFF3EA3FA
:10151000D3E90023FEF7DCFF03460C4625461C46B4
:10152000414B1B681846FEF77FFF39A3D3E9002320
:10153000FEF7CEFF02460B4620462946FEF716FE72
:1015400003460C4618462146FFF79AFA0246374BE7
:101550001A60334B1B681846FEF766FF03460C46BD
:1015600038461A462346324903F094FF3B46184654
:10157000FEF7EEFD03469AB2394632232D4803F0BA
:1015800065F9274B1B681846FFF728FD02462A4BD2
:101590001A60294B1B686FF0150202FB03F341F23E
:1015A00088321344254A1360254B1B68234A12686E
:1015B0005A63214B1A683B462249184603F06AFFDA
:1015C0003B461846FEF7C4FD03469AB2394632231D
:1015D000184803F03BF9194B1A683B461A4918465C
:1015E00003F058FF3B461846FEF7B2FD03469AB299
:1015F000394632230F4803F029F9642000F062FBDA
:1016000077E500BFAFF300803C4ED1915CFEEF3F29
:101610002D431CEBE2362A3F580300205C020020D9
:101620004803002060030020B8020020340300209B
:10163000C871000818020020D0020020DC0200203F
:10164000E0020020D4710008E071000880B590B07D
:1016500000AF07F1180328220021184603F0B0FA62
:101660003B1D00221A605A609A60DA601A610123F9
:10167000BB614FF48033FB6100233B620123BB62FB
:1016800002237B634FF48033BB634FF4E013FB63AF
:1016900007F11803184601F05DFE0346002B01D048
:1016A00000F042F90F237B600223BB600023FB6044
:1016B0004FF480633B6100237B613B1D0221184690
:1016C00002F0C8F80346002B01D000F02DF900BF4E
:1016D0004037BD4680BD000080B500AF124B134AB5
:1016E0001A60114B124A5A600F4B00229A600E4B3F
:1016F0000022DA600C4B4FF480421A610A4B002240
:101700005A61094B00229A61074B0022DA61064BAD
:1017100000221A62044800F033FD0346002B01D07A
:1017200000F002F900BF80BD6002002000540040BC
:10173000801A060080B596B000AF07F1480300227A
:101740001A605A609A60DA6007F1400300221A605A
:101750005A6007F1240300221A605A609A60DA6026
:101760001A615A619A613B1D20220021184603F03C
:1017700027FA3F4B3F4A1A603D4B23225A603C4BAD
:1017800000229A603A4B42F20F72DA60384B4FF403
:1017900000721A61364B00225A61354B00229A6161
:1017A000334802F0F3F90346002B01D000F0BCF8F7
:1017B0004FF48053BB6407F1480319462C4802F0EC
:1017C000EDFB0346002B01D000F0AEF8284802F0F4
:1017D0002CFA0346002B01D000F0A6F800233B644E
:1017E00000237B6407F140031946214802F032FFD1
:1017F0000346002B01D000F097F860237B620023A2
:10180000BB620023FB6200233B6300237B63002356
:10181000BB630023FB6307F124030022194614482D
:1018200002F0FEFA0346002B01D000F07DF8002301
:101830007B600023BB600023FB6000233B6100232F
:101840007B614FF40053BB6100233B623B1D194693
:10185000074802F05DFF0346002B01D000F064F85A
:10186000034800F0F3F800BF5837BD4680BD00BF05
:10187000E0020020002C014080B500AF114B124A5D
:101880001A60104B4FF416425A600E4B00229A60B9
:101890000C4B0022DA600B4B00221A61094B0C2220
:1018A0005A61084B00229A61064B0022DA61054812
:1018B00002F07FFF0346002B01D000F035F800BF97
:1018C00080BD00BF180200200048004080B485B0F1
:1018D00000AF144A134B9B6943F020039361114BF3
:1018E0009B6903F02003FB60FB680E4A0D4B9B696C
:1018F00043F0080393610B4B9B6903F00803BB6043
:10190000BB68084A074B9B6943F004039361054B8E
:101910009B6903F004037B607B6800BF1437BD46FE
:1019200080BC70470010024080B400AF72B6FEE782
:1019300080B485B000AF154A144B9B6943F0010396
:101940009361124B9B6903F00103BB60BB680F4AB4
:101950000E4BDB6943F08053D3610C4BDB6903F022
:1019600080537B607B680A4B5B68FB60FB6823F0FD
:10197000E063FB60FB6843F00073FB60044AFB68B4
:10198000536000BF1437BD4680BC70470010024052
:101990000000014080B588B000AF786007F1100307
:1019A00000221A605A609A60DA607B681B68154AE8
:1019B000934223D1144A144B9B6943F0080393616B
:1019C000114B9B6903F00803FB60FB68C0233B617C
:1019D00012237B610323FB6107F1100319460B48B7
:1019E00000F074FA084A084BDB6943F40013D36132
:1019F000054BDB6903F40013BB60BB6800BF2037F5
:101A0000BD4680BD0054004000100240000C014063
:101A100080B485B000AF78607B681B68094A934248
:101A20000BD1094A084B9B6943F400639361064B51
:101A30009B6903F40063FB60FB6800BF1437BD467D
:101A400080BC7047002C01400010024080B588B077
:101A500000AF786007F1100300221A605A609A60A4
:101A6000DA607B681B68104A934218D10F4A0F4B0B
:101A70009B6943F0040393610C4B9B6903F00403DF
:101A8000FB60FB684FF480733B6102237B610223A0
:101A9000FB6107F110031946054800F017FA00BF73
:101AA0002037BD4680BD00BF002C01400010024021
:101AB0000008014080B588B000AF786007F11003DE
:101AC00000221A605A609A60DA607B681B681C4AC0
:101AD000934231D11B4A1B4BDB6943F48023D36112
:101AE000184BDB6903F48023FB60FB68154A154B38
:101AF0009B6943F008039361124B9B6903F0080351
:101B0000BB60BB684FF480633B6102237B610323AE
:101B1000FB6107F1100319460B4800F0D7F94FF4A9
:101B200000633B6100237B610023BB6107F110036D
:101B30001946054800F0CAF900BF2037BD4680BDF0
:101B40000048004000100240000C014080B400AF8B
:101B5000FEE780B400AFFEE780B400AFFEE780B4DC
:101B600000AFFEE780B400AFFEE780B400AF00BF77
:101B7000BD4680BC704780B400AF00BFBD4680BC8E
:101B8000704780B400AF00BFBD4680BC704780B5D1
:101B900000AF00F07BF800BF80BD000080B584B0CE
:101BA00000AF7860114B1B68002B02D10F4B104A1D
:101BB0001A600E4B1B68FB600C4B1A687B68134461
:101BC0006A46934207D902F0D1FF02460C23136004
:101BD0004FF0FF3306E0054B1A687B681344034A55
:101BE0001360FB6818461037BD4680BD0C0200200C
:101BF0006C03002080B400AF00BFBD4680BC7047BE
:101C000080B500AF084A084B1B6843F0100313600F
:101C1000032000F027F9002000F008F8FFF788FE05
:101C20000023184680BD00BF0020024080B582B06E
:101C300000AF7860124B1A68124B1B7819464FF4AC
:101C40007A73B3FBF1F3B2FBF3F3184600F031F90A
:101C50000346002B01D001230EE07B680F2B0AD82E
:101C6000002279684FF0FF3000F007F9064A7B68E0
:101C70001360002300E0012318460837BD4680BDED
:101C8000140000201C0000201800002080B400AFC9
:101C9000054B1B781A46054B1B681344034A136017
:101CA00000BFBD4680BC70471C00002064030020BC
:101CB00080B400AF024B1B681846BD4680BC70471D
:101CC0006403002080B584B000AF7860FFF7F0FFB8
:101CD000B8607B68FB60FB68B3F1FF3F05D0094B40
:101CE0001B781A46FB681344FB6000BFFFF7E0FF58
:101CF0000246BB68D21AFB689A42F7D300BF10377E
:101D0000BD4680BD1C00002080B485B000AF786067
:101D10007B6803F00703FB600C4BDB68BB60BA68B1
:101D20004FF6FF031340BB60FB681A02BB68134306
:101D300043F0BF6343F40033BB60044ABB68D36025
:101D400000BF1437BD4680BC704700BF00ED00E007
:101D500080B400AF044BDB681B0A03F0070318468E
:101D6000BD4680BC704700BF00ED00E080B483B08A
:101D700000AF03463960FB7197F90730002B0ADB8F
:101D80000D4997F907303A68D2B21201D2B20B442A
:101D900083F800230AE00949FB7903F00F03043BB1
:101DA0003A68D2B21201D2B20B441A7600BF0C3795
:101DB000BD4680BC704700BF00E100E000ED00E0E0
:101DC00080B489B000AFF860B9607A60FB6803F056
:101DD0000703FB61FB69C3F10703042B28BF04233E
:101DE000BB61FB690433062B02D9FB69033B00E0AE
:101DF00000237B610122BB6902FA03F35A1EBB6810
:101E00001A407B699A4001217B6901FA03F3591E4C
:101E10007B680B40134318462437BD4680BC70478F
:101E200080B582B000AF78607B68013BB3F1807F02
:101E300001D301230FE00A4A7B68013B53600F2165
:101E40004FF0FF30FFF792FF054B00229A60044BE2
:101E500007221A60002318460837BD4680BD00BF20
:101E600010E000E080B582B000AF78607868FFF7DE
:101E70004BFF00BF0837BD4680BD80B586B000AFC0
:101E80000346B9607A60FB7300237B61FFF760FF54
:101E900078617A68B9687869FFF792FF024697F926
:101EA0000F3011461846FFF761FF00BF1837BD46D7
:101EB00080BD80B582B000AF78607868FFF7B0FF72
:101EC000034618460837BD4680BD000080B48BB07D
:101ED00000AF7860396000237B6200233B6227E11A
:101EE00001227B6A02FA03F3FB613B681A68FB6913
:101EF0001340BB61BA69FB699A4240F016813B68A6
:101F00005B68122B34D0122B0DD8022B2BD0022B56
:101F100004D8002B31D0012B1CD048E0032B43D038
:101F2000112B1BD043E0894A934226D0874A934223
:101F300006D8874A934220D0864A93421DD036E085
:101F4000854A934219D0854A934216D0844A9342D7
:101F500013D02CE03B68DB683B6228E03B68DB6821
:101F600004333B6223E03B68DB6808333B621EE0DE
:101F70003B68DB680C333B6219E03B689B68002BD5
:101F800002D104233B6212E03B689B68012B05D120
:101F900008233B627B68FA691A6108E008233B6208
:101FA0007B68FA695A6102E000233B6200BFBB69AB
:101FB000FF2B01D87B6801E07B6804337B61BB6940
:101FC000FF2B02D87B6A9B0002E07B6A083B9B00E8
:101FD0003B617B691A680F213B6901FA03F3DB431C
:101FE0001A40396A3B6901FA03F31A437B691A60A4
:101FF0003B685B6803F08053002B00F09680594AE1
:10200000584B9B6943F001039361564B9B6903F066
:102010000103BB60BB68544A7B6A9B08023352F8D9
:102020002330FB607B6A03F003039B000F2202FA5C
:1020300003F3DB43FA681340FB607B684B4A93422F
:1020400013D07B684A4A93420DD07B68494A934239
:1020500007D07B68484A934201D1032306E004235A
:1020600004E0022302E0012300E000237A6A02F088
:10207000030292009340FA681343FB603A497B6A7B
:102080009B080233FA6841F823203B685B6803F43D
:102090008033002B06D03949384B1A68BB6913438B
:1020A0000B6006E03549354B1A68BB69DB431340CA
:1020B0000B603B685B6803F40033002B06D02F49AC
:1020C0002E4B5A68BB6913434B6006E02B492B4BE0
:1020D0005A68BB69DB4313404B603B685B6803F4A1
:1020E0008013002B06D02549244B9A68BB69134303
:1020F0008B6006E02149214B9A68BB69DB431340A2
:102100008B603B685B6803F40013002B06D01B490F
:102110001A4BDA68BB691343CB6006E01749174BCB
:10212000DA68BB69DB431340CB607B6A01337B62B7
:102130003B681A687B6A22FA03F3002B7FF4D0AE67
:1021400000BF2C37BD4680BC704700BF0000211087
:1021500000001110000012100000311000003210B9
:102160000000221000100240000001400008014061
:10217000000C014000100140001401400004014027
:1021800090B585B000AF78607B68002B01D101234A
:102190001FE17B6893F83D30DBB2002B06D17B68F2
:1021A000002283F83C207868FFF7F4FB7B68242248
:1021B00083F83D207B681B687A681268126822F0F9
:1021C00001021A607B681B687A681268126842F420
:1021D00000421A607B681B687A681268126822F4F1
:1021E00000421A6001F08CFCF8607B685B687B4AF7
:1021F000934207D8FB687A4A934294BF0123002395
:10220000DBB206E0FB68774A934294BF01230023C8
:10221000DBB2002B01D00123DBE0FB68724AA2FB9A
:1022200003239B0CBB607B681B687A68126852684A
:1022300022F03F01BA680A435A607B681A687B68DB
:102240001B681B6A23F03F017B685B68634883421D
:1022500002D8BB68013309E0BB684FF4967000FBFD
:1022600003F36248A0FB03039B0901330B43136292
:102270007B6818687B681B68DB6923F44F4222F097
:10228000FF027B685B6855498B420DD8FB68591E7D
:102290007B685B685B00B1FBF3F30133C3F30B03B3
:1022A000042B38BF04234FE07B689B68002B11D1BF
:1022B000FB685C1E7B6859680B465B000B44B4FBF3
:1022C000F3F30133C3F30B03002B0CBF01230023F3
:1022D000DBB212E0FB685C1E7B6859680B469B0012
:1022E0000B4499000B44B4FBF3F30133C3F30B032A
:1022F000002B0CBF01230023DBB2002B01D00123F4
:1023000022E07B689B68002B0ED1FB685C1E7B681B
:1023100059680B465B000B44B4FBF3F30133C3F382
:102320000B0343F400430FE0FB685C1E7B685968B5
:102330000B469B000B4499000B44B4FBF3F30133B1
:10234000C3F30B0343F440431343C3617B681B682F
:102350007A681268126822F0C0017A68D0697A68D7
:10236000126A02430A431A607B681A687B681B681A
:102370009B6823F4034323F0FF03796808697968B5
:10238000C96801430B4393607B681B687A681268D5
:10239000D26822F0FF017A6850697A689269024334
:1023A0000A43DA607B681B687A681268126842F038
:1023B00001021A607B6800221A647B68202283F87D
:1023C0003D207B6800221A637B68002283F83E2050
:1023D000002318461437BD4690BD00BFA0860100FB
:1023E0007F841E00FF083D0083DE1B43D34D621037
:1023F00080B588B002AFF8607A601A460B467B81E0
:1024000013463B81FFF754FC7861FB6893F83D303D
:10241000DBB2202B40F0E0807B690093192301227E
:102420007049F86800F0BAFD0346002B01D0022382
:10243000D3E0FB6893F83C30012B01D10223CCE0C0
:10244000FB68012283F83C20FB681B681B6803F0D3
:102450000103012B07D0FB681B68FA681268126839
:1024600042F001021A60FB681B68FA681268126881
:1024700022F400621A60FB68212283F83D20FB6889
:10248000102283F83E20FB6800221A64FB687A68F9
:102490005A62FB683A895A85FB685B8D9AB2FB6881
:1024A0001A85FB68504ADA6279897B693A6AF8686A
:1024B00000F024FC0346002B01D001238DE0002313
:1024C0003B61FB681B685B693B61FB681B689B6940
:1024D0003B613B6966E07A69396AF86800F034FE6E
:1024E0000346002B0DD0FB681B6C042B07D1FB6847
:1024F0001B68FA681268126842F400721A600123BD
:102500006BE0FB681B68FA68526A12781A61FB6814
:102510005B6A5A1CFB685A62FB685B8D9BB2013B8D
:102520009AB2FB685A85FB681B8D013B9AB2FB6827
:102530001A85FB681B685B6903F00403042B1BD13D
:10254000FB681B8D002B17D0FB681B68FA68526A6A
:1025500012781A61FB685B6A5A1CFB685A62FB6856
:102560005B8D9BB2013B9AB2FB685A85FB681B8D61
:10257000013B9AB2FB681A857A69396AF86800F0FB
:1025800024FE0346002B0DD0FB681B6C042B07D1E7
:10259000FB681B68FA681268126842F400721A60DD
:1025A00001231AE0FB681B8D002B94D1FB681B688C
:1025B000FA681268126842F400721A60FB682022FE
:1025C00083F83D20FB68002283F83E20FB68002250
:1025D00083F83C20002300E0022318461837BD464C
:1025E00080BD00BF020010000000FFFF80B58CB06E
:1025F00002AFF8607A601A460B467B8113463B8136
:1026000000233B62FFF754FB7862FB6893F83D3090
:10261000DBB2202B40F038827B6A00931923012221
:102620007E49F86800F0BAFC0346002B01D0022373
:102630002BE2FB6893F83C30012B01D1022324E20A
:10264000FB68012283F83C20FB681B681B6803F0D1
:102650000103012B07D0FB681B68FA681268126837
:1026600042F001021A60FB681B68FA68126812687F
:1026700022F400621A60FB68222283F83D20FB6886
:10268000102283F83E20FB6800221A64FB687A68F7
:102690005A62FB683A895A85FB685B8D9AB2FB687F
:1026A0001A85FB685E4ADA6279897B6A3A6BF86858
:1026B00000F0A6FB0346002B01D00123E5E1FB68F7
:1026C0001B8D002B13D10023FB61FB681B685B692A
:1026D000FB61FB681B689B69FB61FB69FB681B680E
:1026E000FA681268126842F400721A60B9E1FB6875
:1026F0001B8D012B1DD1FB681B68FA6812681268DC
:1027000022F480621A6072B60023BB61FB681B680A
:102710005B69BB61FB681B689B69BB61BB69FB684C
:102720001B68FA681268126842F400721A6062B696
:1027300097E1FB681B8D022B1DD1FB681B68FA68B3
:102740001268126842F400621A6072B600237B615C
:10275000FB681B685B697B61FB681B689B697B612D
:102760007B69FB681B68FA681268126822F4806251
:102770001A6062B675E1FB681B68FA681268126835
:1027800042F480621A6000233B61FB681B685B694E
:102790003B61FB681B689B693B613B6961E1FB68CE
:1027A0001B8D032B00F21A81FB681B8D012B23D19B
:1027B0007A6A396BF86800F049FD0346002B01D0B6
:1027C000012362E1FB685B6AFA6812681269D2B29F
:1027D0001A70FB685B6A5A1CFB685A62FB681B8DA7
:1027E000013B9AB2FB681A85FB685B8D9BB2013B8B
:1027F0009AB2FB685A8534E1FB681B8D022B50D1DD
:102800007B6A00933B6B00220649F86800F0C6FB28
:102810000346002B08D0012337E100BF020010005F
:102820000000FFFF0400010072B6FB681B68FA6835
:102830001268126842F400721A60FB685B6AFA68F8
:1028400012681269D2B21A70FB685B6A5A1CFB6884
:102850005A62FB681B8D013B9AB2FB681A85FB68C4
:102860005B8D9BB2013B9AB2FB685A8562B6FB68EE
:102870005B6AFA6812681269D2B21A70FB685B6A06
:102880005A1CFB685A62FB681B8D013B9AB2FB68BD
:102890001A85FB685B8D9BB2013B9AB2FB685A8537
:1028A000DFE07B6A00933B6B00227A49F86800F016
:1028B00075FB0346002B01D00123E6E0FB681B6893
:1028C000FA681268126822F480621A6072B6FB68B5
:1028D0005B6AFA6812681269D2B21A70FB685B6AA6
:1028E0005A1CFB685A62FB681B8D013B9AB2FB685D
:1028F0001A85FB685B8D9BB2013B9AB2FB685A85D7
:10290000654B1B68DB08654AA2FB03231A0A1346C2
:102910009B001344DA00D31A3B623B6A013B3B62E3
:102920003B6A002B17D1FB6800221A63FB68202248
:1029300083F83D20FB68002283F83E20FB681B6C77
:1029400043F02002FB681A6462B6FB68002283F839
:102950003C20012399E0FB681B685B6903F00403DA
:10296000042BDAD1FB681B68FA681268126842F41B
:1029700000721A60FB685B6AFA6812681269D2B268
:102980001A70FB685B6A5A1CFB685A62FB681B8DF5
:10299000013B9AB2FB681A85FB685B8D9BB2013BD9
:1029A0009AB2FB685A8562B6FB685B6AFA6812687D
:1029B0001269D2B21A70FB685B6A5A1CFB685A62D1
:1029C000FB681B8D013B9AB2FB681A85FB685B8D27
:1029D0009BB2013B9AB2FB685A8542E07A6A396B36
:1029E000F86800F033FC0346002B01D001234CE0D3
:1029F000FB685B6AFA6812681269D2B21A70FB68E7
:102A00005B6A5A1CFB685A62FB681B8D013B9AB2D9
:102A1000FB681A85FB685B8D9BB2013B9AB2FB6831
:102A20005A85FB681B685B6903F00403042B18D10B
:102A3000FB685B6AFA6812681269D2B21A70FB68A6
:102A40005B6A5A1CFB685A62FB681B8D013B9AB299
:102A5000FB681A85FB685B8D9BB2013B9AB2FB68F1
:102A60005A85FB681B8D002B7FF499AEFB682022F2
:102A700083F83D20FB68002283F83E20FB6800229B
:102A800083F83C20002300E0022318462837BD4687
:102A900080BD00BF040001001400002089B5F814B7
:102AA00080B58AB002AFF8607A603B600B467B81EC
:102AB000FFF7FEF8F8610123BB61FB6893F83D3036
:102AC000DBB2202B40F01081FB6900931923012217
:102AD0008849F86800F062FA0346002B01D002230F
:102AE00003E1FB6893F83C30012B01D10223FCE0A9
:102AF000FB68012283F83C20FB681B681B6803F01D
:102B00000103012B07D0FB681B68FA681268126882
:102B100042F001021A60FB681B68FA6812681268CA
:102B200022F400621A60FB68242283F83D20FB68CF
:102B300000221A64FB68704ADA62FB681B68FA6854
:102B40001268126842F480721A60FB6900933B6855
:102B500000224FF00111F86800F020FA0346002B24
:102B60000DD0FB681B681B6803F48073B3F5807F8E
:102B700003D1FB684FF400721A640323B5E0FB68CD
:102B80001B687A89D2B202F0FE021A61FFF790F850
:102B9000F861FB681B685B6903F00203022B0CBF42
:102BA00001230023DBB2FB75FB681B685B6903F440
:102BB0008063B3F5806F0CBF01230023DBB2BB75CC
:102BC00025E0FFF775F80246FB69D21A3B689A4286
:102BD00002D83B68002B03D1FB68A02283F83D207C
:102BE000FB681B685B6903F00203022B0CBF012327
:102BF0000023DBB2FB75FB681B685B6903F4806331
:102C0000B3F5806F0CBF01230023DBB2BB75FB68FB
:102C100093F83D30DBB2A02B05D0FB7D002B02D119
:102C2000BB7D002BCDD0FB68202283F83D20FB68C4
:102C30001B685B6903F00203022B29D1FB681B6848
:102C4000FA681268126842F400721A6000233B614D
:102C5000FB681B685B693B61FB681B689B693B61A8
:102C60003B69FB690093192301222249F86800F0AF
:102C700095F90346002B01D0012336E0FB682022A2
:102C800083F83D20FB68002283F83C2000232CE0E1
:102C9000FB681B68FA681268126842F400721A60D6
:102CA000FB681B686FF480625A61FB69009319230B
:102CB00001221049F86800F071F90346002B01D099
:102CC000012312E0BB690133BB61BA697B689A4298
:102CD000FFF433AFFB68202283F83D20FB6800221D
:102CE00083F83C20012300E0022318462037BD462C
:102CF00080BD00BF020010000000FFFF80B588B05B
:102D000002AFF8607A603B600B467B81FB68DB6A50
:102D10007B617B69082B06D07B69012B03D07B6923
:102D200013F5803F08D1FB681B68FA6812681268C7
:102D300042F480721A600BE0FB681B6B122B07D108
:102D4000FB681B68FA681268126842F480721A60A5
:102D50003B6800937B6800224FF00111F86800F097
:102D60001DF90346002B0DD0FB681B681B6803F49C
:102D70008073B3F5807F03D1FB684FF400721A644F
:102D8000032334E0FB681B69B3F5804F07D1FB6870
:102D90001B687A89D2B202F0FE021A611BE0FB685E
:102DA0001B687A89D211D2B202F00602D2B262F066
:102DB0000F02D2B21A613B687A680F49F86800F0D6
:102DC00044F90346002B01D0012310E0FB681B6887
:102DD0007A89D2B21A613B687A680849F86800F0CB
:102DE00034F90346002B01D0012300E000231846EC
:102DF0001837BD4680BD00BF080001000200010079
:102E000080B588B002AFF8607A603B600B467B818A
:102E1000FB68DB6A7B61FB681B68FA6812681268F2
:102E200042F480621A607B69082B06D07B69012B13
:102E300003D07B6913F5803F08D1FB681B68FA68F3
:102E40001268126842F480721A600BE0FB681B6B18
:102E5000112B07D1FB681B68FA681268126842F4EC
:102E600080721A603B6800937B6800224FF001116A
:102E7000F86800F093F80346002B0DD0FB681B6840
:102E80001B6803F48073B3F5807F03D1FB684FF4B4
:102E900000721A64032379E0FB681B69B3F5804F65
:102EA00008D1FB681B687A89D2B242F00102D2B223
:102EB0001A615FE0FB681B687A89D211D2B202F016
:102EC0000602D2B262F00F02D2B21A613B687A688F
:102ED0003049F86800F0B9F80346002B01D001230F
:102EE00054E0FB681B687A89D2B21A613B687A6841
:102EF0002949F86800F0A9F80346002B01D0012306
:102F000044E000233B61FB681B685B693B61FB6835
:102F10001B689B693B613B69FB681B68FA68126828
:102F2000126842F480721A603B6800937B6800224A
:102F30004FF00111F86800F031F80346002B0DD076
:102F4000FB681B681B6803F48073B3F5807F03D1B3
:102F5000FB684FF400721A64032317E0FB681B68D8
:102F60007A89D211D2B202F00602D2B262F00E0217
:102F7000D2B21A613B687A680749F86800F065F8D0
:102F80000346002B01D0012300E000231846183728
:102F9000BD4680BD080001000200010080B584B07C
:102FA00000AFF860B9603B601346FB7125E03B68F9
:102FB000B3F1FF3F21D0FEF77BFE0246BB69D21A78
:102FC0003B689A4202D83B68002B16D1FB6800226E
:102FD0001A63FB68202283F83D20FB68002283F8F7
:102FE0003E20FB681B6C43F02002FB681A64FB6800
:102FF000002283F83C20012323E0BB681B0CDBB2DA
:10300000012B0DD1FB681B685B69DA43BB68134079
:103010009BB2002B0CBF01230023DBB21A460CE04D
:10302000FB681B689B69DA43BB6813409BB2002BAB
:103030000CBF01230023DBB21A46FB799A42B6D0BB
:10304000002318461037BD4680BD80B584B000AF60
:10305000F860B9607A603B6051E0FB681B685B69AF
:1030600003F48063B3F5806F23D1FB681B68FA68B3
:103070001268126842F400721A60FB681B686FF4F1
:1030800080625A61FB6800221A63FB68202283F881
:103090003D20FB68002283F83E20FB681B6C43F058
:1030A0000402FB681A64FB68002283F83C200123B9
:1030B00046E07B68B3F1FF3F21D0FEF7F9FD024601
:1030C0003B68D21A7B689A4202D87B68002B16D1E3
:1030D000FB6800221A63FB68202283F83D20FB680E
:1030E000002283F83E20FB681B6C43F02002FB6843
:1030F0001A64FB68002283F83C20012320E0BB68AF
:103100001B0CDBB2012B0CD1FB681B685B69DA433B
:10311000BB6813409BB2002B14BF01230023DBB21A
:103120000BE0FB681B689B69DA43BB6813409BB2EA
:10313000002B14BF01230023DBB2002B8DD1002311
:1031400018461037BD4680BD80B584B000AFF8602A
:10315000B9607A602DE0F86800F0CEF80346002BE5
:1031600001D001232DE0BB68B3F1FF3F21D0FEF772
:103170009FFD02467B68D21ABB689A4202D8BB68A0
:10318000002B16D1FB6800221A63FB68202283F80B
:103190003D20FB68002283F83E20FB681B6C43F057
:1031A0002002FB681A64FB68002283F83C2001239C
:1031B00007E0FB681B685B6903F08003802BCAD1C2
:1031C000002318461037BD4680BD80B584B000AFDF
:1031D000F860B9607A602DE0F86800F08DF8034679
:1031E000002B01D001232DE0BB68B3F1FF3F21D0BC
:1031F000FEF75EFD02467B68D21ABB689A4202D88F
:10320000BB68002B16D1FB6800221A63FB682022E2
:1032100083F83D20FB68002283F83E20FB681B6C8E
:1032200043F02002FB681A64FB68002283F83C200C
:10323000012307E0FB681B685B6903F00403042BB0
:10324000CAD1002318461037BD4680BD80B584B072
:1032500000AFF860B9607A6042E0FB681B685B69A8
:1032600003F01003102B19D1FB681B686FF01002DC
:103270005A61FB6800221A63FB68202283F83D2014
:10328000FB68002283F83E20FB681A6CFB681A6416
:10329000FB68002283F83C20012329E0FEF708FDAB
:1032A00002467B68D21ABB689A4202D8BB68002BE0
:1032B00016D1FB6800221A63FB68202283F83D20A8
:1032C000FB68002283F83E20FB681B6C43F0200261
:1032D000FB681A64FB68002283F83C20012307E0A6
:1032E000FB681B685B6903F04003402BB5D10023EA
:1032F00018461037BD4680BD80B483B000AF7860FB
:103300007B681B685B6903F48063B3F5806F1BD136
:103310007B681B686FF480625A617B6800221A63C5
:103320007B68202283F83D207B68002283F83E20C2
:103330007B681B6C43F004027B681A647B68002284
:1033400083F83C20012300E0002318460C37BD46DB
:1033500080BC704780B586B000AF78607B68002B7A
:1033600001D101236CE27B681B6803F00103002B91
:1033700000F08780924B5B6803F00C03042B0CD0A9
:103380008F4B5B6803F00C03082B12D18C4B5B68EE
:1033900003F48033B3F5803F0BD1894B1B6803F4F2
:1033A0000033002B6CD07B685B68002B68D1012355
:1033B00046E27B685B68B3F5803F06D1804A804B6C
:1033C0001B6843F4803313602EE07B685B68002B3E
:1033D0000CD17B4A7A4B1B6823F480331360784A04
:1033E000774B1B6823F4802313601DE07B685B68C8
:1033F000B3F5A02F0CD1724A714B1B6843F48023A4
:1034000013606F4A6E4B1B6843F4803313600BE00C
:103410006B4A6B4B1B6823F480331360684A684B1C
:103420001B6823F4802313607B685B68002B13D038
:10343000FEF73EFC386108E0FEF73AFC02463B69C5
:10344000D31A642B01D90323FAE15D4B1B6803F403
:103450000033002BF0D014E0FEF72AFC386108E0BE
:10346000FEF726FC02463B69D31A642B01D90323DD
:10347000E6E1534B1B6803F40033002BF0D100E06E
:1034800000BF7B681B6803F00203002B63D04C4B2A
:103490005B6803F00C03002B0BD0494B5B6803F017
:1034A0000C03082B1CD1464B5B6803F48033002BC4
:1034B00016D1434B1B6803F00203002B05D07B6839
:1034C0001B69012B01D00123BAE13D493C4B1B682C
:1034D00023F0F8027B685B69DB0013430B603AE082
:1034E0007B681B69002B20D0364B01221A60FEF747
:1034F000DFFB386108E0FEF7DBFB02463B69D31ACD
:10350000022B01D903239BE12D4B1B6803F002031F
:10351000002BF0D02A492A4B1B6823F0F8027B6865
:103520005B69DB0013430B6015E0264B00221A6039
:10353000FEF7BEFB386108E0FEF7BAFB02463B69C6
:10354000D31A022B01D903237AE11D4B1B6803F028
:103550000203002BF0D17B681B6803F00803002BEB
:103560003AD07B689B69002B19D0174B01221A6057
:10357000FEF79EFB386108E0FEF79AFB02463B69C6
:10358000D31A022B01D903235AE10D4B5B6A03F0D6
:103590000203002BF0D0012000F0DAFA1CE00A4B05
:1035A00000221A60FEF784FB38610FE0FEF780FB13
:1035B00002463B69D31A022B08D9032340E100BF1E
:1035C0000010024000004242800442429E4B5B6A6F
:1035D00003F00203002BE9D17B681B6803F00403AE
:1035E000002B00F0A6800023FB75974BDB6903F0EE
:1035F0008053002B0DD1944A934BDB6943F08053E9
:10360000D361914BDB6903F08053BB60BB6801233E
:10361000FB758E4B1B6803F48073002B18D18B4A0B
:103620008A4B1B6843F480731360FEF741FB3861DB
:1036300008E0FEF73DFB02463B69D31A642B01D933
:103640000323FDE0814B1B6803F48073002BF0D053
:103650007B68DB68012B06D17B4A7B4B1B6A43F0FE
:10366000010313622DE07B68DB68002B0CD1764AE6
:10367000754B1B6A23F001031362734A724B1B6A7A
:1036800023F0040313621CE07B68DB68052B0CD17C
:103690006D4A6D4B1B6A43F0040313626A4A6A4B1E
:1036A0001B6A43F0010313620BE0674A664B1B6A17
:1036B00023F001031362644A634B1B6A23F0040383
:1036C00013627B68DB68002B15D0FEF7F1FA3861D6
:1036D0000AE0FEF7EDFA02463B69D31A41F288325E
:1036E000934201D90323ABE0574B1B6A03F002035B
:1036F000002BEED014E0FEF7DBFA38610AE0FEF7AB
:10370000D7FA02463B69D31A41F28832934201D973
:10371000032395E04C4B1B6A03F00203002BEED110
:10372000FB7D012B05D1484A474BDB6923F08053D1
:10373000D3617B68DB69002B00F08180424B5B68C2
:1037400003F00C03082B61D07B68DB69022B46D1A8
:103750003F4B00221A60FEF7ABFA386108E0FEF733
:10376000A7FA02463B69D31A022B01D9032367E06B
:10377000354B1B6803F00073002BF0D17B681B6A8C
:10378000B3F5803F08D130492F4B5B6823F40032FA
:103790007B689B6813434B602B482B4B5B6823F47F
:1037A00074127B68196A7B685B6A0B43134343603E
:1037B000274B01221A60FEF77BFA386108E0FEF71A
:1037C00077FA02463B69D31A022B01D9032337E06B
:1037D0001D4B1B6803F00073002BF0D02FE01C4B37
:1037E00000221A60FEF764FA386108E0FEF760FA1A
:1037F00002463B69D31A022B01D9032320E0124B66
:103800001B6803F00073002BF0D118E07B68DB69C4
:10381000012B01D1012313E00B4B5B68FB60FB68BC
:1038200003F480327B681B6A9A4206D1FB6803F47A
:1038300070127B685B6A9A4201D0012300E000238A
:1038400018461837BD4680BD001002400070004089
:103850006000424280B584B000AF786039607B6818
:10386000002B01D10123D0E06A4B1B6803F0070253
:103870003B689A4210D26749664B1B6823F00702E7
:103880003B6813430B60634B1B6803F007023B6804
:103890009A4201D00123B8E07B681B6803F0020361
:1038A000002B20D07B681B6803F00403002B05D09D
:1038B000594A594B5B6843F4E06353607B681B686B
:1038C00003F00803002B05D0534A534B5B6843F4C5
:1038D000605353605049504B5B6823F0F0027B68A3
:1038E0009B6813434B607B681B6803F00103002B4C
:1038F00040D07B685B68012B07D1474B1B6803F402
:103900000033002B15D101237FE07B685B68022B1D
:1039100007D1414B1B6803F00073002B09D1012331
:1039200073E03D4B1B6803F00203002B01D1012320
:103930006BE03949384B5B6823F003027B685B68B6
:1039400013434B60FEF7B4F9F8600AE0FEF7B0F9F4
:103950000246FB68D31A41F28832934201D903230D
:1039600053E02D4B5B6803F00C027B685B689B00A7
:103970009A42EBD1274B1B6803F007023B689A423F
:1039800010D92449234B1B6823F007023B681343DB
:103990000B60204B1B6803F007023B689A4201D082
:1039A000012332E07B681B6803F00403002B08D07E
:1039B0001949194B5B6823F4E0627B68DB681343A9
:1039C0004B607B681B6803F00803002B09D0124989
:1039D000114B5B6823F460527B681B69DB00134367
:1039E0004B6000F021F801460B4B5B681B0903F0AC
:1039F0000F030A4AD35C21FA03F3094A1360094B07
:103A00001B681846FEF712F9002318461037BD460A
:103A100080BD00BF00200240001002400872000874
:103A2000140000201800002090B48AB000AF2A4B88
:103A30003C1D0FCB84E80F00284B1B883B800023E4
:103A4000FB610023BB6100237B6200237B610023B9
:103A50003B62234B5B68FB61FB6903F00C03042BA7
:103A600002D0082B03D02DE01E4B3B622DE0FB69FA
:103A70009B0C03F00F0307F12802134413F8243CB6
:103A80007B61FB6903F48033002B13D0144B5B681C
:103A90005B0C03F0010307F12802134413F8283CE0
:103AA000BB617B690F4A02FB03F2BB69B2FBF3F314
:103AB0007B6204E07B690C4A02FB03F37B627B6A56
:103AC0003B6202E0074B3B6200BF3B6A1846283767
:103AD000BD4690BC704700BFF47100080472000836
:103AE0000010024000127A0000093D0080B400AFCF
:103AF000024B1B681846BD4680BC7047140000206E
:103B000080B500AFFFF7F2FF0146054B5B681B0A6B
:103B100003F00703034AD35C21FA03F3184680BD80
:103B2000001002401872000880B500AFFFF7DEFFFA
:103B30000146054B5B68DB0A03F00703034AD35CCD
:103B400021FA03F3184680BD0010024018720008E5
:103B500080B485B000AF78600A4B1B680A4AA2FBAC
:103B600003235B0A7A6802FB03F3FB6000BFFB6878
:103B70005A1EFA60002BF9D100BF1437BD4680BC35
:103B8000704700BF14000020D34D621080B582B092
:103B900000AF78607B68002B01D1012341E07B6896
:103BA00093F83D30DBB2002B06D17B68002283F80E
:103BB0003C207868FDF72CFF7B68022283F83D20CB
:103BC0007B681A687B6804331946104600F09EFA39
:103BD0007B68012283F846207B68012283F83E201F
:103BE0007B68012283F83F207B68012283F8402014
:103BF0007B68012283F841207B68012283F8422000
:103C00007B68012283F843207B68012283F84420EB
:103C10007B68012283F845207B68012283F83D20E0
:103C2000002318460837BD4680BD80B582B000AF7E
:103C300078607B68002B01D1012341E07B6893F819
:103C40003D30DBB2002B06D17B68002283F83C209C
:103C5000786800F039F87B68022283F83D207B68A1
:103C60001A687B6804331946104600F04FFA7B68E7
:103C7000012283F846207B68012283F83E207B687E
:103C8000012283F83F207B68012283F840207B6873
:103C9000012283F841207B68012283F842207B685F
:103CA000012283F843207B68012283F844207B684B
:103CB000012283F845207B68012283F83D20002300
:103CC00018460837BD4680BD80B483B000AF786029
:103CD00000BF0C37BD4680BC7047000080B584B083
:103CE00000AF786039603B68002B09D17B6893F89E
:103CF0003E30DBB2012B14BF01230023DBB222E0F4
:103D00003B68042B09D17B6893F83F30DBB2012B71
:103D100014BF01230023DBB215E03B68082B09D157
:103D20007B6893F84030DBB2012B14BF01230023E2
:103D3000DBB208E07B6893F84130DBB2012B14BFA3
:103D400001230023DBB2002B01D001235EE03B689E
:103D5000002B04D17B68022283F83E2013E03B68ED
:103D6000042B04D17B68022283F83F200BE03B68E0
:103D7000082B04D17B68022283F8402003E07B6893
:103D8000022283F841207B681B68012239681846AB
:103D900000F03CFC7B681B681E4A934207D17B689D
:103DA0001B687A681268526C42F400425A647B685D
:103DB0001B68184A93420ED07B681B68B3F1804F92
:103DC00009D07B681B68144A934204D07B681B6847
:103DD000124A934211D17B681B689B6803F007036A
:103DE000FB60FB68062B10D07B681B687A68126842
:103DF000126842F001021A6007E07B681B687A686B
:103E00001268126842F001021A6000231846103747
:103E1000BD4680BD002C0140000400400008004069
:103E200080B584B000AFF860B9607A60FB6893F841
:103E30003C30012B01D10223ACE0FB68012283F866
:103E40003C207B680C2B00F29F8001A252F823F0EB
:103E5000853E0008893F0008893F0008893F000827
:103E6000C53E0008893F0008893F0008893F0008D7
:103E7000073F0008893F0008893F0008893F000884
:103E8000473F0008FB681B68B968184600F0A0F9B6
:103E9000FB681B68FA681268926942F008029A612E
:103EA000FB681B68FA681268926922F004029A6142
:103EB000FB681B68FA6812689169BA6812690A435C
:103EC0009A6162E0FB681B68B968184600F0E6F981
:103ED000FB681B68FA681268926942F400629A6192
:103EE000FB681B68FA681268926922F480629A6122
:103EF000FB681B68FA6812689169BA681269120255
:103F00000A439A6141E0FB681B68B968184600F0F3
:103F10002FFAFB681B68FA681268D26942F008023F
:103F2000DA61FB681B68FA681268D26922F0040241
:103F3000DA61FB681B68FA681268D169BA681269AD
:103F40000A43DA6121E0FB681B68B968184600F093
:103F500079FAFB681B68FA681268D26942F4006259
:103F6000DA61FB681B68FA681268D26922F4806221
:103F7000DA61FB681B68FA681268D169BA6812696D
:103F800012020A43DA6100E000BFFB68002283F8F6
:103F90003C20002318461037BD4680BD80B584B054
:103FA00000AF786039607B6893F83C30012B01D119
:103FB0000223A6E07B68012283F83C207B68022272
:103FC00083F83D207B681B689B68FB60FB6823F0DF
:103FD0007703FB60FB6823F47F43FB607B681B680F
:103FE000FA689A603B681B68402B67D0402B0BD85F
:103FF000102B73D0102B02D8002B6FD078E0202B21
:104000006CD0302B6AD073E0702B0DD0702B04D89D
:10401000502B33D0602B41D06AE0B3F5805F66D07F
:10402000B3F5005F17D063E07B6818683B68996858
:104030003B685A683B68DB6800F0C9FA7B681B681C
:104040009B68FB60FB6843F07703FB607B681B6841
:10405000FA689A604CE07B6818683B6899683B682E
:104060005A683B68DB6800F0B2FA7B681B687A68C4
:104070001268926842F480429A6039E07B6818685E
:104080003B6859683B68DB681A4600F029FA7B6890
:104090001B685021184600F080FA29E07B681868F8
:1040A0003B6859683B68DB681A4600F047FA7B6852
:1040B0001B686021184600F070FA19E07B681868E8
:1040C0003B6859683B68DB681A4600F009FA7B6870
:1040D0001B684021184600F060FA09E07B681A6806
:1040E0003B681B681946104600F057FA00E000BF15
:1040F0007B68012283F83D207B68002283F83C2006
:10410000002318461037BD4680BD000080B485B03E
:1041100000AF786039607B681B68FB607B68294A68
:1041200093420BD07B68B3F1804F07D07B68264A5F
:10413000934203D07B68254A934208D1FB6823F061
:104140007003FB603B685B68FA681343FB607B6845
:104150001C4A93420BD07B68B3F1804F07D07B6839
:10416000194A934203D07B68184A934208D1FB68EE
:1041700023F44073FB603B68DB68FA681343FB6021
:10418000FB6823F080023B685B691343FB607B683C
:10419000FA681A603B689A687B68DA623B681A685A
:1041A0007B689A627B68074A934203D13B681A692D
:1041B0007B681A637B6801225A6100BF1437BD46D1
:1041C00080BC7047002C0140000400400008004003
:1041D00080B487B000AF786039607B681B6A23F0D9
:1041E00001027B681A627B681B6A7B617B685B6883
:1041F0003B617B689B69FB60FB6823F07003FB609D
:10420000FB6823F00303FB603B681B68FA681343F9
:10421000FB607B6923F002037B613B689B687A69E2
:1042200013437B617B681C4A93420CD17B6923F06A
:1042300008037B613B68DB687A6913437B617B69B8
:1042400023F004037B617B68134A934211D13B69DD
:1042500023F480733B613B6923F400733B613B684B
:104260005B693A6913433B613B689B693A69134355
:104270003B617B683A695A607B68FA689A613B687F
:104280005A687B685A637B687A691A6200BF1C3778
:10429000BD4680BC704700BF002C014080B487B091
:1042A00000AF786039607B681B6A23F010027B687E
:1042B0001A627B681B6A7B617B685B683B617B6819
:1042C0009B69FB60FB6823F4E043FB60FB6823F41D
:1042D0004073FB603B681B681B02FA681343FB607A
:1042E0007B6923F020037B613B689B681B017A6933
:1042F00013437B617B681D4A93420DD17B6923F098
:1043000080037B613B68DB681B017A6913437B6137
:104310007B6923F040037B617B68144A934213D18D
:104320003B6923F480633B613B6923F400633B6199
:104330003B685B699B003A6913433B613B689B693F
:104340009B003A6913433B617B683A695A607B681A
:10435000FA689A613B685A687B689A637B687A69F5
:104360001A6200BF1C37BD4680BC7047002C01405C
:1043700080B487B000AF786039607B681B6A23F433
:1043800080727B681A627B681B6A7B617B685B68F2
:104390003B617B68DB69FB60FB6823F07003FB60BB
:1043A000FB6823F00303FB603B681B68FA68134358
:1043B000FB607B6923F400737B613B689B681B0295
:1043C0007A6913437B617B681D4A93420DD17B69F7
:1043D00023F400637B613B68DB681B027A6913434B
:1043E0007B617B6923F480637B617B68144A934221
:1043F00013D13B6923F480533B613B6923F40053A1
:104400003B613B685B691B013A6913433B613B6855
:104410009B691B013A6913433B617B683A695A60A7
:104420007B68FA68DA613B685A687B68DA637B68A4
:104430007A691A6200BF1C37BD4680BC704700BF56
:10444000002C014080B487B000AF786039607B6891
:104450001B6A23F480527B681A627B681B6A3B618B
:104460007B685B687B617B68DB69FB60FB6823F4CE
:10447000E043FB60FB6823F44073FB603B681B6810
:104480001B02FA681343FB603B6923F400533B6152
:104490003B689B681B033A6913433B617B680F4A87
:1044A000934209D17B6923F480437B613B685B695C
:1044B0009B017A6913437B617B687A695A607B68E8
:1044C000FA68DA613B685A687B681A647B683A6903
:1044D0001A6200BF1C37BD4680BC7047002C0140EB
:1044E00080B487B000AFF860B9607A60FB681B6A7F
:1044F0007B61FB681B6A23F00102FB681A62FB68A0
:104500009B693B613B6923F0F0033B617B681B01C6
:104510003A6913433B617B6923F00A037B617A6943
:10452000BB6813437B61FB683A699A61FB687A69EF
:104530001A6200BF1C37BD4680BC704780B487B08C
:1045400000AFF860B9607A60FB681B6A23F0100264
:10455000FB681A62FB689B697B61FB681B6A3B61B5
:104560007B6923F470437B617B681B037A69134387
:104570007B613B6923F0A0033B61BB681B013A6987
:1045800013433B61FB687A699A61FB683A691A6276
:1045900000BF1C37BD4680BC704780B485B000AFFB
:1045A000786039607B689B68FB60FB6823F0700370
:1045B000FB603A68FB68134343F00703FB607B68CA
:1045C000FA689A6000BF1437BD4680BC704780B45B
:1045D00087B000AFF860B9607A603B60FB689B68A9
:1045E0007B617B6923F47F437B613B681A027B68B4
:1045F0001A43BB6813437A6913437B61FB687A698A
:104600009A6000BF1C37BD4680BC704780B487B03D
:1046100000AFF860B9607A60BB6803F01F03012245
:1046200002FA03F37B61FB681A6A7B69DB431A4079
:10463000FB681A62FB681A6ABB6803F01F0379689B
:1046400001FA03F31A43FB681A6200BF1C37BD4628
:1046500080BC704780B485B000AF786039607B68FB
:1046600093F83C30012B01D1022346E07B68012204
:1046700083F83C207B68022283F83D207B681B681E
:104680005B68FB607B681B689B68BB60FB6823F012
:104690007003FB603B681B68FA681343FB607B6830
:1046A0001B68FA685A607B681B68164A93420ED0F2
:1046B0007B681B68B3F1804F09D07B681B68124A86
:1046C000934204D07B681B68104A93420CD1BB68AC
:1046D00023F08003BB603B685B68BA681343BB6030
:1046E0007B681B68BA689A607B68012283F83D206A
:1046F0007B68002283F83C20002318461437BD460F
:1047000080BC7047002C01400004004000080040BD
:1047100080B485B000AF786039600023FB607B68AF
:1047200093F83C30012B01D102233DE07B6801224C
:1047300083F83C20FB6823F0FF023B68DB681343EF
:10474000FB60FB6823F440723B689B681343FB608B
:10475000FB6823F480623B685B681343FB60FB6883
:1047600023F400623B681B681343FB60FB6823F47F
:1047700080523B681B691343FB60FB6823F40052C3
:104780003B685B691343FB60FB6823F480423B6832
:10479000DB691343FB607B681B68FA685A647B68BB
:1047A000002283F83C20002318461437BD4680BC05
:1047B000704780B582B000AF78607B68002B01D174
:1047C00001233FE07B6893F83D30DBB2002B06D13C
:1047D0007B68002283F83C207868FDF76BF97B68E2
:1047E000242283F83D207B681B687A681268D268AF
:1047F00022F40052DA60786800F004F97B681B68E4
:104800007A681268126922F490421A617B681B6808
:104810007A681268526922F02A025A617B681B6822
:104820007A681268D26842F40052DA607B6800222B
:104830001A647B68202283F83D207B68202283F85D
:104840003E20002318460837BD4680BD80B58AB09B
:1048500002AFF860B9603B601346FB8000237B61C8
:10486000FB6893F83D30DBB2202B7BD1BB68002B7B
:1048700002D0FB88002B01D1012374E0FB6893F880
:104880003C30012B01D102236DE0FB68012283F84B
:104890003C20FB6800221A64FB68212283F83D203B
:1048A000FDF706FA7861FB68FA889A84FB68FA8853
:1048B000DA84FB689B68B3F5805F08D1FB681B69ED
:1048C000002B04D10023FB61BB68BB6103E0BB6824
:1048D000FB610023BB61FB68002283F83C2029E0D8
:1048E0003B6800937B6900228021F86800F03FF864
:1048F0000346002B01D0032335E0FB69002B0AD1CE
:10490000FB681B68BA691288C2F308025A60BB6967
:104910000233BB6107E0FB681B68FA6912785A60D2
:10492000FB690133FB61FB68DB8C9BB2013B9AB2F4
:10493000FB68DA84FB68DB8C9BB2002BD0D13B6830
:1049400000937B6900224021F86800F010F80346CC
:10495000002B01D0032306E0FB68202283F83D20D2
:10496000002300E0022318462037BD4680BD80B5F5
:1049700084B000AFF860B9603B601346FB712CE077
:10498000BB69B3F1FF3F28D0BB69002B07D0FDF70F
:104990008FF902463B68D21ABB699A421DD9FB685F
:1049A0001B68FA681268D26822F4D072DA60FB6879
:1049B0001B68FA681268526922F001025A61FB68AA
:1049C000202283F83D20FB68202283F83E20FB68EC
:1049D000002283F83C2003230FE0FB681B681A6861
:1049E000BB681A40BB689A420CBF01230023DBB2AC
:1049F0001A46FB799A42C3D0002318461037BD46A9
:104A000080BD000090B585B000AF78607B681B6802
:104A10007A681268126922F440517A68D2680A43AF
:104A20001A617B689A687B681B691A437B685B69BB
:104A30001343BB607B681A687B681B68DB6823F4E0
:104A4000B05323F00C03B9680B43D3607B681B6839
:104A50007A681268526922F440717A6892690A434E
:104A60005A617B681B682C4A934203D1FFF75CF8BC
:104A7000F86002E0FFF744F8F8607B681968FA68AC
:104A800013469B0013449A001A447B685B689B00A2
:104A9000B2FBF3F3214AA2FB03235B091801FA6876
:104AA00013469B0013449A001A447B685B689B0082
:104AB000B2FBF3F2194BA3FB02435B09642404FB32
:104AC00003F3D31A1B013233144AA2FB03235B09FD
:104AD00003F0F0031844FA6813469B0013449A004D
:104AE0001A447B685B689B00B2FBF3F20B4BA3FBA1
:104AF00002435B09642404FB03F3D31A1B01323322
:104B0000064AA2FB03235B0903F00F0303448B60F7
:104B100000BF1437BD4690BD003801401F85EB51E2
:104B20000C480D490D4A002302E0D458C450043308
:104B3000C4188C42F9D30A4A0A4C002301E01360DE
:104B40000432A242FBD3FDF755F800F015F8FCF74C
:104B50006BFA704700000020F0010020C8740008C4
:104B6000F00100206C030020FEE70000014B1868F4
:104B7000704700BF2000002070B500250C4E0D4C82
:104B8000A41BA410A54209D102F000FB00250A4E87
:104B90000A4CA41BA410A54205D170BD56F82530BF
:104BA00098470135EEE756F8253098470135F2E78A
:104BB000C0740008C0740008C0740008C474000801
:104BC00003460244934200D1704703F8011BF9E702
:104BD000002B2DE9F0471E46BBBF03F100431E46E4
:104BE00000232D2388B0149F129927F02007462F09
:104BF0001446109DDDF84CA00B7004D0452F00D159
:104C00000135022300E0032307AA049206AA0392B7
:104C10008DE828042246334600F0EEFC472F8046FC
:104C200002D1119BDB0726D5462F08EB050911D1D0
:104C300098F80030302B0AD100220023204631465C
:104C4000FBF7AEFE18B9C5F10105CAF80050DAF855
:104C5000003099440022002320463146FBF7A0FE95
:104C600038B93022079B994505D9591C07911A700C
:104C7000F8E7CDF81C904046079B159AA3EB080374
:104C8000136008B0BDE8F0870346F7B5002903F8C4
:104C9000022BB6BF2D222B2249420929427021DD69
:104CA0000DF1070217460A2691FBF6F506FB1511D2
:104CB000092D01F1300102F8011C02F1FF342946EF
:104CC00009DC3031023A04F8011CBA421C4604D314
:104CD000201A03B0F0BD2246E6E712F8011B03F8E4
:104CE000011BF2E730221C46114404F8022B5970D4
:104CF000EEE700002DE9F04F91B00C461A9F934665
:104D00001E46054601F04CFA036818460993FBF766
:104D10001FFA00230E933B680A90073323F0070322
:104D200003F1080294F81880D4F800A03A60D3E99F
:104D30000023C4E91223D4F84C90A76C29F0004357
:104D40000B934FF0FF32A64B38460B99FBF75AFEF8
:104D5000002840F0F7814FF0FF32A14B38460B9905
:104D6000FBF732FE002840F0ED8100220023384698
:104D70004946FBF71FFE10B12D2384F84330994BB1
:104D8000994FB8F1470F98BF1F4603234FF0000912
:104D900023612AF00403236000965B460FAA214694
:104DA000284600F0DFF9013040F09A804FF0FF30E4
:104DB00011B0BDE8F08F62680EA8531C0DF1340EDF
:104DC0004AF4806341D1062262600021236001938E
:104DD00063680DF133020590029200933A464B4608
:104DE0000691CDF81080CDF80CE02846FFF7F0FED4
:104DF00008F0DF03472B074609D10D9BD81C02DBC7
:104E00006268934259DDA8F102085FFA88F8B8F1A8
:104E1000650F0D9936D80139424604F150000D91C5
:104E2000FFF732FF0E9A81468318012A236102DCC4
:104E30002268D10701D5013323619DF83330002B5F
:104E4000AAD02D2384F84330A6E7B8F1670F02D02B
:104E5000B8F1470FB9D19AB1002106910DF1330194
:104E60008DE80C00236005903A46CDF81080CDF80F
:104E70000CE002914B462846FFF7AAFE0746BCE726
:104E80000122A1E7B8F1660F19D1002963680CDD92
:104E9000216113B92268D20702D501330B44236183
:104EA0000D9B4FF00009A365C7E713B92268D0072F
:104EB00001D50233F3E70123F1E74FF067080D9BBB
:104EC0000E9A934205DB22682361D107E8D50133AE
:104ED000E5E7002BCCBF0123C3F102031344DEE757
:104EE00023685A0507D423693A4659462846B047ED
:104EF00001302AD15AE7B8F1650F40F2DC80D4E9DD
:104F0000120100220023FBF74BFD002839D00123BA
:104F1000364A59462846B04701303FF447AF0E9B0A
:104F20000D9A9A4202DB2368D8070ED50A9B099A8C
:104F300059462846B04701303FF438AF002704F106
:104F40001A080E9B013B9F4211DB23689F0708D57F
:104F5000002704F11908E3680F9A9B1A9F42C0F2D8
:104F6000E780E0680F9B9842B8BF184620E701230E
:104F7000424659462846B04701303FF417AF013743
:104F8000DFE70D9B002B33DC0123184A59462846E6
:104F9000B04701303FF40AAF0D9B23B90E9B13B904
:104FA0002368D907D1D50A9B099A59462846B047A4
:104FB00001303FF4FBAE4FF0000804F11A090D9BDD
:104FC0005B42984501DB0E9B8EE701234A4659461A
:104FD0002846B04701303FF4E9AE08F10108EEE79A
:104FE000FFFFEF7F20720008247200083072000873
:104FF0000E9AA36D9A42A8BF1A46002A904636DC44
:105000004FF0000A04F11A0328EAE8780B93D4F869
:105010005890A9EB08039A4531DB0E9B0D9A9A42F2
:1050200038DB2368DA0735D40E9B0D99A3EB090210
:10503000A3EB01089045A8BF9046B8F1000F31DC02
:10504000002728EAE87804F11A090D9A0E9B9B1AAA
:10505000A3EB08039F42BFF678AF01234A465946A7
:105060002846B04701303FF4A1AE0137EDE71346C3
:1050700059463A462846B0470130C1D196E6012349
:105080000B9A59462846B04701303FF48FAE0AF1DB
:10509000010ABCE70A9B099A59462846B0470130E5
:1050A000C2D183E6434607EB090259462846B0477A
:1050B0000130C5D17AE60E9A012A01DCDB0734D52E
:1050C00001233A4659462846B04701303FF46EAEB8
:1050D0000A9B099A59462846B04701303FF466AE0C
:1050E000D4E9120100220023FBF75AFC50B100273B
:1050F00004F11A080E9B013B9F420CDB4B4604F166
:105100005002F2E60E9B7A1C013B59462846B047F6
:105110000130F3D14AE60123424659462846B047BA
:1051200001303FF443AE0137E4E701233A46ECE7B0
:105130000123424659462846B04701303FF436AE77
:10514000013708E73A464B4638464946FBF75AFCD2
:1051500000283FF430AE014B014F12E628720008E0
:105160002C7200082DE9F04791461F468A680B69AA
:1051700006469342B8BF1346C9F8003091F8432061
:105180000C46DDF8208012B10133C9F800302368E5
:10519000990642BFD9F800300233C9F800302568BB
:1051A00015F0060507D104F1190AE368D9F80020C3
:1051B0009B1A9D422ADB94F843302268003318BFC3
:1051C000012392062FD404F1430239463046C047EA
:1051D000013022D02368E56803F00603042B18BFD2
:1051E0000025D9F800204FF0000908BFAD1AA368C8
:1051F000226908BF25EAE5759342C4BF9B1AED18E2
:105200001A344D451BD10020BDE8F08701235246DA
:1052100039463046C047013003D14FF0FF30BDE87A
:10522000F0870135C1E73020E11881F843005A1CAE
:1052300094F845102244023382F84310C3E7012357
:10524000224639463046C0470130E6D009F101090F
:10525000D7E700002DE9F04317460A7E85B06E2A95
:10526000984606460C460C9B01F1430E00F0BC80AC
:105270001AD8632A2ED00AD8002A00F0C880582AEB
:1052800000F08A8004F1420584F842202AE0642A72
:1052900001D0692AF6D121681A6811F0800F23D055
:1052A000111D1960136827E0732A00F0B48008D834
:1052B0006F2A2AD0702AE5D10A6842F020020A60DB
:1052C00003E0752A21D0782ADCD178226F4984F84E
:1052D000452064E01A6801F14205111D1960136848
:1052E00084F842300123A3E011F0400F02F10401E1
:1052F0001960D7D0B2F90030002B03DA2D225B42BF
:1053000084F8432062490A2217E02068196810F0E7
:10531000800F03D0081D18600B6806E010F0400FE6
:1053200001F104001860F7D00B886F2A14BF0A221D
:1053300008225749002084F843006568002DA560C5
:10534000C0F29C80206820F004002060002B3FD138
:10535000002D40F095807546082A0BD12368DA07A6
:1053600008D5236962689A42DEBF302305F8013C04
:1053700005F1FF35AEEB05032361CDF800803B4618
:1053800003AA21463046FFF7EDFE013055D14FF01C
:10539000FF3005B0BDE8F08381F845203C49226824
:1053A000186812F0800F00F104051D6001D0036839
:1053B00002E05506FBD50388D00744BF42F0200227
:1053C00022601BB9226822F0200222601022B1E77D
:1053D0007546B3FBF2F002FB1033CB5C05F8013DE0
:1053E00003460028F5D1B7E708681A6810F0800F67
:1053F000496904D0101D18601368196007E010F0A7
:10540000400F02F1040018601368F6D019800023E1
:1054100075462361B1E71A68111D196015680021EE
:105420006268284600F0D2FE08B1401B60606368E5
:105430002361002384F843309FE723692A463946D5
:105440003046C0470130A2D023689B0707D500250E
:1054500004F11909E368039A9B1A9D4205DBE06891
:10546000039B9842B8BF184693E701234A46394642
:105470003046C04701308AD00135EBE7002BA7D179
:105480000B7804F1420584F8423065E74372000866
:10549000327200080EB44FF4027100B59CB0ADF842
:1054A00014106FF00041049107914FF6FF711DAB8E
:1054B00002900690084853F8042BADF816100068C7
:1054C00002A9019301F080FA0022029B1A701CB01D
:1054D0005DF804EB03B07047200000202DE9F74F82
:1054E00003690C6980469C4200F38280013C01F113
:1054F000140700F1140657F8245056F8240001351B
:10550000B0FBF5F54FEA840E06EB0E0307EB0E0930
:1055100001938DB34FF0000A3846B446D34650F895
:10552000042B93B205FB03A3120C4FEA134A05FBAD
:1055300002A29BB2ABEB0303BCF800B04FEA124AE5
:105540005B441FFA82FBDCF800208145CBEB124262
:1055500002EB23429BB243EA02434FEA224B4CF850
:10556000043BDCD256F80E3033B9019B043B9E421B
:105570001A4631D3C8F81040404601F048F80028D8
:1055800026DB30464FF0000E013557F8041BD0F8EB
:1055900000C08BB2AEEB03031FFA8CF213440A0C6B
:1055A000C2EB1C4202EB23429BB243EA0243B945E1
:1055B0004FEA224E40F8043BE7D256F8242006EB8F
:1055C00084032AB9043B9E421A460BD3C8F8104004
:1055D000284603B0BDE8F08F1268043B002AC9D109
:1055E000013CC4E71268043B002AEFD1013CEAE722
:1055F0000020EEE7000000002DE9F04F466A95B06C
:105600000446219DCDE902233EB9102000F0D6FDCD
:105610006062466086600660C660636A196851B160
:105620005A68012393404A608B60204600F01BFEBD
:105630000022636A1A60039B002BB7BF012300237B
:105640002B60039BAEBF2B6023F000430393DDF878
:105650000C90AB4B33EA09031BD142F20F73209A33
:105660001360029B23B9C9F31300002800F083855F
:10567000229B53B9A34B21E0A34B06930833229AF4
:105680001360069815B0BDE8F08F9E4B0693033368
:10569000F5E7DDE902670022002330463946FBF7D3
:1056A0007FF9804660B10123209A1360229B002B72
:1056B00000F05E85954B229A1360013B0693E0E76C
:1056C00012AB019313AB009332463B46204601F0E8
:1056D00017F8C9F30A558246002D7DD03046C7F32E
:1056E000130343F07F5141F44011A5F2FF35CDF88B
:1056F00040800022864BFAF737FD7BA3D3E90023D5
:10570000FAF7E6FE7AA3D3E90023FAF72FFD06465F
:1057100028460F46FAF776FE77A3D3E90023FAF777
:10572000D7FE02460B4630463946FAF71FFD0646BD
:105730000F46FBF77DF900228346002330463946A9
:10574000FBF738F958B15846FAF75CFE02460B46AB
:1057500030463946FBF724F908B90BF1FF3BBBF1A2
:10576000160F58D8DDE902236A4901EBCB01D1E9D4
:105770000001FBF73DF900284FD000230BF1FF3B60
:105780000D93129B5D1B6B1E079343BF0023C5F156
:10579000010807934FF00008BBF1000F3FDB079BA8
:1057A000CDF830B05B440793002308931E9B092B70
:1057B00000F2B480052BC4BF043B1E931E9BC8BFE0
:1057C0000026A3F10203D8BF0126032B00F2B2800A
:1057D000DFE803F084862D78139B129D1D4405F2AB
:1057E0003243202B11DD029A05F21240C3F140032F
:1057F00022FA00F009FA03F31843FAF7F3FD012344
:10580000A1F1F871013D109373E7C3F12000029BF1
:1058100003FA00F0F1E70123B2E70D90B1E7CBF115
:10582000000308930023A8EB0B080C93BEE70123A9
:1058300009931F9B002B40F380809946049300221C
:105840000421656A6A6001F114029A427AD9696892
:10585000204600F0D4FC636A28601B68B9F10E0F83
:10586000069300F2F080002E00F0ED80DDE90223C7
:10587000BBF1000FCDE90E2379DD264A0BF00F03B3
:105880004FEA2B1602EBC303F006D3E90023CDE960
:105890000A235CD5DDE90E011F4B0325D3E908235C
:1058A000FAF740FFCDE9020106F00F061A4F002E6D
:1058B0004FD1DDE90A23DDE90201FAF733FFCDE933
:1058C00002016EE0012309931F9B5B4403F1010970
:1058D00004934B46012BB8BF0123B0E70023A7E791
:1058E0000023F0E7AFF3008061436F63A787D23FE7
:1058F000B3C8608B288AC63FFB799F501344D33FBF
:105900000000F07F5D7200085472000831720008D8
:105910000000F83F9072000868720008012600231A
:1059200009961E934FF0FF330022049399461223E9
:105930001F9284E701230993F4E701230493994616
:105940001A46F5E76A68490001326A607BE702257A
:10595000ACE7F10708D5DDE90A01D7E90023FAF73A
:10596000B7FDCDE90A010135761008379FE700F051
:10597000A580DDE90E01CBF10006A24B06F00F0277
:1059800003EBC203D3E90023FAF7A2FD02250023AB
:10599000CDE902019C4F3611002E40F08480002B8F
:1059A0008DD10D9B002B00F08B80DDE90223CDE92A
:1059B0000A23DDE90A010022944BFAF7FBFF0028D5
:1059C0007ED0B9F1000F7BD0049B002B37DDDDE9E1
:1059D0000A0100228E4BFAF77BFDCDE90201049EFD
:1059E0000BF1FF3701352846FAF70CFDDDE90223FC
:1059F000FAF76EFD874B0022FAF7B8FBCDE90A01F2
:105A00000B9BA3F150750B95002E5CD1DDE90201D3
:105A10000022814BFAF7A8FB0A9A2B46CDE9020136
:105A2000FAF7E6FF002840F0F782DDE902010A9A62
:105A300005F10043FAF7BEFF002840F0EB82DDE9F4
:105A40000E23CDE90223139B002BC0F25081BBF142
:105A50000E0F00F34C816B4B03EBCB03D3E9002318
:105A6000CDE904231F9B002B80F2DA80B9F1000FEF
:105A700000F3D68040F0CD82DDE904010022664BC0
:105A8000FAF726FDDDE90223FAF7A8FF4E464F4656
:105A9000002840F0A482069B069A5D1C31230BF17E
:105AA000010B13709FE2F20705D5D7E90023FAF73F
:105AB0000FFD01230135761008376DE7022570E7E9
:105AC0005F464E468FE7069A4E4B32441192099A32
:105AD000711E002A48D003EBC103D3E90023002044
